{
  "contractName": "ConcatString",
  "abi": [
    {
      "inputs": [
        {
          "internalType": "string",
          "name": "_a",
          "type": "string"
        },
        {
          "internalType": "string",
          "name": "_b",
          "type": "string"
        },
        {
          "internalType": "string",
          "name": "_c",
          "type": "string"
        },
        {
          "internalType": "string",
          "name": "_d",
          "type": "string"
        },
        {
          "internalType": "string",
          "name": "_e",
          "type": "string"
        }
      ],
      "name": "strConcat5",
      "outputs": [
        {
          "internalType": "string",
          "name": "",
          "type": "string"
        }
      ],
      "stateMutability": "pure",
      "type": "function",
      "constant": true
    },
    {
      "inputs": [
        {
          "internalType": "string",
          "name": "_a",
          "type": "string"
        },
        {
          "internalType": "string",
          "name": "_b",
          "type": "string"
        },
        {
          "internalType": "string",
          "name": "_c",
          "type": "string"
        },
        {
          "internalType": "string",
          "name": "_d",
          "type": "string"
        },
        {
          "internalType": "string",
          "name": "_e",
          "type": "string"
        }
      ],
      "name": "concat",
      "outputs": [
        {
          "internalType": "string",
          "name": "",
          "type": "string"
        }
      ],
      "stateMutability": "pure",
      "type": "function",
      "constant": true
    },
    {
      "inputs": [],
      "name": "compare",
      "outputs": [
        {
          "internalType": "bool",
          "name": "",
          "type": "bool"
        }
      ],
      "stateMutability": "pure",
      "type": "function",
      "constant": true
    },
    {
      "inputs": [],
      "name": "print",
      "outputs": [
        {
          "internalType": "bytes32",
          "name": "",
          "type": "bytes32"
        }
      ],
      "stateMutability": "pure",
      "type": "function",
      "constant": true
    },
    {
      "inputs": [],
      "name": "print2",
      "outputs": [
        {
          "internalType": "bytes",
          "name": "",
          "type": "bytes"
        }
      ],
      "stateMutability": "pure",
      "type": "function",
      "constant": true
    }
  ],
  "bytecode": "0x608060405234801561001057600080fd5b50610fb5806100206000396000f3fe608060405234801561001057600080fd5b50600436106100575760003560e01c806313bdfacd1461005c5780633da0ac791461007a578063ba48682714610098578063d97d445b146100c8578063f7495309146100f8575b600080fd5b610064610116565b6040516100719190610862565b60405180910390f35b61008261023a565b60405161008f9190610898565b60405180910390f35b6100b260048036038101906100ad9190610a0d565b61047c565b6040516100bf9190610b9c565b60405180910390f35b6100e260048036038101906100dd9190610a0d565b6107ef565b6040516100ef9190610b9c565b60405180910390f35b610100610824565b60405161010d9190610c13565b60405180910390f35b600061022e6040518060400160405280600181526020017f61000000000000000000000000000000000000000000000000000000000000008152506040518060400160405280600181526020017f62000000000000000000000000000000000000000000000000000000000000008152506040518060400160405280600181526020017f63000000000000000000000000000000000000000000000000000000000000008152506040518060400160405280600181526020017f64000000000000000000000000000000000000000000000000000000000000008152506040518060400160405280600181526020017f650000000000000000000000000000000000000000000000000000000000000081525061047c565b80519060200120905090565b60006103526040518060400160405280600181526020017f61000000000000000000000000000000000000000000000000000000000000008152506040518060400160405280600181526020017f62000000000000000000000000000000000000000000000000000000000000008152506040518060400160405280600181526020017f63000000000000000000000000000000000000000000000000000000000000008152506040518060400160405280600181526020017f64000000000000000000000000000000000000000000000000000000000000008152506040518060400160405280600181526020017f65000000000000000000000000000000000000000000000000000000000000008152506107ef565b8051906020012061046f6040518060400160405280600181526020017f61000000000000000000000000000000000000000000000000000000000000008152506040518060400160405280600181526020017f62000000000000000000000000000000000000000000000000000000000000008152506040518060400160405280600181526020017f63000000000000000000000000000000000000000000000000000000000000008152506040518060400160405280600181526020017f64000000000000000000000000000000000000000000000000000000000000008152506040518060400160405280600181526020017f650000000000000000000000000000000000000000000000000000000000000081525061047c565b8051906020012014905090565b6060600086905060008690506000869050600086905060008690506000815183518551875189516104ad9190610c6e565b6104b79190610c6e565b6104c19190610c6e565b6104cb9190610c6e565b67ffffffffffffffff8111156104e4576104e36108e2565b5b6040519080825280601f01601f1916602001820160405280156105165781602001600182028036833780820191505090505b50905060008190506000805b88518110156105aa5788818151811061053e5761053d610cc4565b5b602001015160f81c60f81b83838061055590610cf3565b94508151811061056857610567610cc4565b5b60200101907effffffffffffffffffffffffffffffffffffffffffffffffffffffffffffff1916908160001a90535080806105a290610cf3565b915050610522565b5060005b8751811015610636578781815181106105ca576105c9610cc4565b5b602001015160f81c60f81b8383806105e190610cf3565b9450815181106105f4576105f3610cc4565b5b60200101907effffffffffffffffffffffffffffffffffffffffffffffffffffffffffffff1916908160001a905350808061062e90610cf3565b9150506105ae565b5060005b86518110156106c25786818151811061065657610655610cc4565b5b602001015160f81c60f81b83838061066d90610cf3565b9450815181106106805761067f610cc4565b5b60200101907effffffffffffffffffffffffffffffffffffffffffffffffffffffffffffff1916908160001a90535080806106ba90610cf3565b91505061063a565b5060005b855181101561074e578581815181106106e2576106e1610cc4565b5b602001015160f81c60f81b8383806106f990610cf3565b94508151811061070c5761070b610cc4565b5b60200101907effffffffffffffffffffffffffffffffffffffffffffffffffffffffffffff1916908160001a905350808061074690610cf3565b9150506106c6565b5060005b84518110156107da5784818151811061076e5761076d610cc4565b5b602001015160f81c60f81b83838061078590610cf3565b94508151811061079857610797610cc4565b5b60200101907effffffffffffffffffffffffffffffffffffffffffffffffffffffffffffff1916908160001a90535080806107d290610cf3565b915050610752565b50819850505050505050505095945050505050565b6060858585858560405160200161080a959493929190610d77565b604051602081830303815290604052905095945050505050565b606060405160200161083590610f3e565b604051602081830303815290604052905090565b6000819050919050565b61085c81610849565b82525050565b60006020820190506108776000830184610853565b92915050565b60008115159050919050565b6108928161087d565b82525050565b60006020820190506108ad6000830184610889565b92915050565b6000604051905090565b600080fd5b600080fd5b600080fd5b600080fd5b6000601f19601f8301169050919050565b7f4e487b7100000000000000000000000000000000000000000000000000000000600052604160045260246000fd5b61091a826108d1565b810181811067ffffffffffffffff82111715610939576109386108e2565b5b80604052505050565b600061094c6108b3565b90506109588282610911565b919050565b600067ffffffffffffffff821115610978576109776108e2565b5b610981826108d1565b9050602081019050919050565b82818337600083830152505050565b60006109b06109ab8461095d565b610942565b9050828152602081018484840111156109cc576109cb6108cc565b5b6109d784828561098e565b509392505050565b600082601f8301126109f4576109f36108c7565b5b8135610a0484826020860161099d565b91505092915050565b600080600080600060a08688031215610a2957610a286108bd565b5b600086013567ffffffffffffffff811115610a4757610a466108c2565b5b610a53888289016109df565b955050602086013567ffffffffffffffff811115610a7457610a736108c2565b5b610a80888289016109df565b945050604086013567ffffffffffffffff811115610aa157610aa06108c2565b5b610aad888289016109df565b935050606086013567ffffffffffffffff811115610ace57610acd6108c2565b5b610ada888289016109df565b925050608086013567ffffffffffffffff811115610afb57610afa6108c2565b5b610b07888289016109df565b9150509295509295909350565b600081519050919050565b600082825260208201905092915050565b60005b83811015610b4e578082015181840152602081019050610b33565b83811115610b5d576000848401525b50505050565b6000610b6e82610b14565b610b788185610b1f565b9350610b88818560208601610b30565b610b91816108d1565b840191505092915050565b60006020820190508181036000830152610bb68184610b63565b905092915050565b600081519050919050565b600082825260208201905092915050565b6000610be582610bbe565b610bef8185610bc9565b9350610bff818560208601610b30565b610c08816108d1565b840191505092915050565b60006020820190508181036000830152610c2d8184610bda565b905092915050565b6000819050919050565b7f4e487b7100000000000000000000000000000000000000000000000000000000600052601160045260246000fd5b6000610c7982610c35565b9150610c8483610c35565b9250827fffffffffffffffffffffffffffffffffffffffffffffffffffffffffffffffff03821115610cb957610cb8610c3f565b5b828201905092915050565b7f4e487b7100000000000000000000000000000000000000000000000000000000600052603260045260246000fd5b6000610cfe82610c35565b91507fffffffffffffffffffffffffffffffffffffffffffffffffffffffffffffffff8203610d3057610d2f610c3f565b5b600182019050919050565b600081905092915050565b6000610d5182610b14565b610d5b8185610d3b565b9350610d6b818560208601610b30565b80840191505092915050565b6000610d838288610d46565b9150610d8f8287610d46565b9150610d9b8286610d46565b9150610da78285610d46565b9150610db38284610d46565b91508190509695505050505050565b7f6100000000000000000000000000000000000000000000000000000000000000600082015250565b6000610df8600183610d3b565b9150610e0382610dc2565b600182019050919050565b7f6200000000000000000000000000000000000000000000000000000000000000600082015250565b6000610e44600183610d3b565b9150610e4f82610e0e565b600182019050919050565b7f6300000000000000000000000000000000000000000000000000000000000000600082015250565b6000610e90600183610d3b565b9150610e9b82610e5a565b600182019050919050565b7f6400000000000000000000000000000000000000000000000000000000000000600082015250565b6000610edc600183610d3b565b9150610ee782610ea6565b600182019050919050565b7f6500000000000000000000000000000000000000000000000000000000000000600082015250565b6000610f28600183610d3b565b9150610f3382610ef2565b600182019050919050565b6000610f4982610deb565b9150610f5482610e37565b9150610f5f82610e83565b9150610f6a82610ecf565b9150610f7582610f1b565b915081905091905056fea2646970667358221220d8bf54ba856a7be16a2a955b5ffa948eed2c4d202f95f25dcf1851e6a03416b964736f6c634300080f0033",
  "immutableReferences": {},
  "source": "// SPDX-License-Identifier: MIT\npragma solidity ^0.8.0;\n\ncontract ConcatString{\n    \n    function strConcat5(string memory _a, string memory _b, string memory _c, string memory _d, string memory _e) public pure returns (string memory){\n        bytes memory _ba = bytes(_a);\n        bytes memory _bb = bytes(_b);\n        bytes memory _bc = bytes(_c);\n        bytes memory _bd = bytes(_d);\n        bytes memory _be = bytes(_e);\n        string memory abcde = new string(_ba.length + _bb.length + _bc.length + _bd.length + _be.length);\n        bytes memory babcde = bytes(abcde);\n        uint k = 0;\n        for (uint i = 0; i < _ba.length; i++) babcde[k++] = _ba[i];\n        for (uint i = 0; i < _bb.length; i++) babcde[k++] = _bb[i];\n        for (uint i = 0; i < _bc.length; i++) babcde[k++] = _bc[i];\n        for (uint i = 0; i < _bd.length; i++) babcde[k++] = _bd[i];\n        for (uint i = 0; i < _be.length; i++) babcde[k++] = _be[i];\n        return string (babcde);\n    }\n    function concat(string memory _a, string memory _b, string memory _c, string memory _d, string memory _e) public pure returns (string memory){\n        return string(abi.encodePacked(_a,_b,_c,_d,_e));\n    }\n    function compare() public pure returns (bool){\n        return (keccak256(bytes(strConcat5(\"a\",\"b\",\"c\",\"d\",\"e\"))) == keccak256(bytes(concat(\"a\",\"b\",\"c\",\"d\",\"e\"))));\n    }\n\n    function print() public pure returns (bytes32){\n        return keccak256(bytes(strConcat5(\"a\",\"b\",\"c\",\"d\",\"e\")));\n    }\n    function print2() public pure returns (bytes memory){\n        return abi.encodePacked(\"a\",\"b\",\"c\",\"d\",\"e\");\n    }\n\n}",
  "sourcePath": "/home/morza/development/sandbox/web3/metacoin-truffle/contracts/ConcatString.sol",
  "compiler": {
    "name": "solc",
    "version": "0.8.15+commit.e14f2714.Emscripten.clang"
  },
  "schemaVersion": "3.4.7",
  "updatedAt": "2022-07-02T12:13:40.263Z",
  "networkType": "ethereum",
  "devdoc": {
    "kind": "dev",
    "methods": {},
    "version": 1
  },
  "userdoc": {
    "kind": "user",
    "methods": {},
    "version": 1
  }
}